{"abi":[{"type":"constructor","inputs":[],"stateMutability":"nonpayable"},{"type":"function","name":"MAX_VIOLATIONS","inputs":[],"outputs":[{"name":"","type":"uint256","internalType":"uint256"}],"stateMutability":"view"},{"type":"function","name":"PUNISHMENT_AMOUNT","inputs":[],"outputs":[{"name":"","type":"uint256","internalType":"uint256"}],"stateMutability":"view"},{"type":"function","name":"_addressByHash","inputs":[{"name":"","type":"bytes32","internalType":"bytes32"},{"name":"","type":"uint256","internalType":"uint256"}],"outputs":[{"name":"","type":"address","internalType":"address"}],"stateMutability":"view"},{"type":"function","name":"_fundsStaked","inputs":[{"name":"","type":"address","internalType":"address"}],"outputs":[{"name":"","type":"uint256","internalType":"uint256"}],"stateMutability":"view"},{"type":"function","name":"_matchMapping","inputs":[{"name":"","type":"uint256","internalType":"uint256"}],"outputs":[{"name":"_id","type":"uint256","internalType":"uint256"},{"name":"_winnerId","type":"uint256","internalType":"uint256"},{"name":"_beginAt","type":"uint256","internalType":"uint256"}],"stateMutability":"view"},{"type":"function","name":"_matchVotes","inputs":[{"name":"","type":"bytes32","internalType":"bytes32"}],"outputs":[{"name":"","type":"uint8","internalType":"uint8"}],"stateMutability":"view"},{"type":"function","name":"_nodeViolations","inputs":[{"name":"","type":"address","internalType":"address"}],"outputs":[{"name":"incorrectMatches","type":"uint256","internalType":"uint256"},{"name":"isBanned","type":"bool","internalType":"bool"}],"stateMutability":"view"},{"type":"function","name":"_owner","inputs":[],"outputs":[{"name":"","type":"address","internalType":"address"}],"stateMutability":"view"},{"type":"function","name":"_pendingMatchesHashes","inputs":[{"name":"","type":"uint256","internalType":"uint256"}],"outputs":[{"name":"","type":"bytes32","internalType":"bytes32"}],"stateMutability":"view"},{"type":"function","name":"addFundToStaking","inputs":[],"outputs":[],"stateMutability":"payable"},{"type":"function","name":"banNode","inputs":[{"name":"node","type":"address","internalType":"address"}],"outputs":[],"stateMutability":"nonpayable"},{"type":"function","name":"getListedNodes","inputs":[],"outputs":[{"name":"","type":"address[]","internalType":"address[]"}],"stateMutability":"view"},{"type":"function","name":"getMatchById","inputs":[{"name":"matchId","type":"uint256","internalType":"uint256"}],"outputs":[{"name":"","type":"tuple","internalType":"struct EsportOracle.Match","components":[{"name":"_id","type":"uint256","internalType":"uint256"},{"name":"_opponents","type":"tuple[]","internalType":"struct EsportOracle.Opponents[]","components":[{"name":"_acronym","type":"string","internalType":"string"},{"name":"_id","type":"uint256","internalType":"uint256"},{"name":"_name","type":"string","internalType":"string"}]},{"name":"_game","type":"tuple[]","internalType":"struct EsportOracle.Games[]","components":[{"name":"_id","type":"uint256","internalType":"uint256"},{"name":"_finished","type":"bool","internalType":"bool"},{"name":"_winnerId","type":"uint256","internalType":"uint256"}]},{"name":"_result","type":"tuple[]","internalType":"struct EsportOracle.Result[]","components":[{"name":"_score","type":"uint8","internalType":"uint8"},{"name":"_teamId","type":"uint256","internalType":"uint256"}]},{"name":"_winnerId","type":"uint256","internalType":"uint256"},{"name":"_beginAt","type":"uint256","internalType":"uint256"}]}],"stateMutability":"view"},{"type":"function","name":"getPendingMatches","inputs":[],"outputs":[{"name":"","type":"bytes32[]","internalType":"bytes32[]"}],"stateMutability":"view"},{"type":"function","name":"handleNewMatches","inputs":[{"name":"newMatch","type":"tuple[]","internalType":"struct EsportOracle.Match[]","components":[{"name":"_id","type":"uint256","internalType":"uint256"},{"name":"_opponents","type":"tuple[]","internalType":"struct EsportOracle.Opponents[]","components":[{"name":"_acronym","type":"string","internalType":"string"},{"name":"_id","type":"uint256","internalType":"uint256"},{"name":"_name","type":"string","internalType":"string"}]},{"name":"_game","type":"tuple[]","internalType":"struct EsportOracle.Games[]","components":[{"name":"_id","type":"uint256","internalType":"uint256"},{"name":"_finished","type":"bool","internalType":"bool"},{"name":"_winnerId","type":"uint256","internalType":"uint256"}]},{"name":"_result","type":"tuple[]","internalType":"struct EsportOracle.Result[]","components":[{"name":"_score","type":"uint8","internalType":"uint8"},{"name":"_teamId","type":"uint256","internalType":"uint256"}]},{"name":"_winnerId","type":"uint256","internalType":"uint256"},{"name":"_beginAt","type":"uint256","internalType":"uint256"}]}],"outputs":[],"stateMutability":"nonpayable"},{"type":"function","name":"pause","inputs":[],"outputs":[],"stateMutability":"nonpayable"},{"type":"function","name":"paused","inputs":[],"outputs":[{"name":"","type":"bool","internalType":"bool"}],"stateMutability":"view"},{"type":"function","name":"rehabilitateNode","inputs":[{"name":"node","type":"address","internalType":"address"}],"outputs":[],"stateMutability":"nonpayable"},{"type":"function","name":"setOwner","inputs":[{"name":"newOwner","type":"address","internalType":"address"}],"outputs":[],"stateMutability":"nonpayable"},{"type":"function","name":"unpause","inputs":[],"outputs":[],"stateMutability":"nonpayable"},{"type":"function","name":"withdrawStake","inputs":[],"outputs":[],"stateMutability":"nonpayable"},{"type":"event","name":"NodeBanned","inputs":[{"name":"node","type":"address","indexed":true,"internalType":"address"}],"anonymous":false},{"type":"event","name":"NodePunished","inputs":[{"name":"node","type":"address","indexed":true,"internalType":"address"},{"name":"amount","type":"uint256","indexed":false,"internalType":"uint256"},{"name":"violationsCount","type":"uint256","indexed":false,"internalType":"uint256"}],"anonymous":false},{"type":"event","name":"Paused","inputs":[{"name":"account","type":"address","indexed":false,"internalType":"address"}],"anonymous":false},{"type":"event","name":"Unpaused","inputs":[{"name":"account","type":"address","indexed":false,"internalType":"address"}],"anonymous":false},{"type":"event","name":"newNodeAdded","inputs":[{"name":"addressAdded","type":"address","indexed":true,"internalType":"address"}],"anonymous":false},{"type":"event","name":"stakingSuccess","inputs":[{"name":"addressAdded","type":"address","indexed":true,"internalType":"address"},{"name":"amount","type":"uint256","indexed":false,"internalType":"uint256"}],"anonymous":false},{"type":"error","name":"EnforcedPause","inputs":[]},{"type":"error","name":"ExpectedPause","inputs":[]}],"bytecode":{"object":"0x6080604052348015600e575f5ffd5b50335f60016101000a81548173ffffffffffffffffffffffffffffffffffffffff021916908373ffffffffffffffffffffffffffffffffffffffff1602179055505f60075f6101000a81548160ff021916908360ff160217905550615397806100765f395ff3fe608060405260043610610129575f3560e01c80635f29d4b1116100aa578063bb27ea261161006e578063bb27ea261461039e578063bed9d861146103da578063da83225a146103f0578063e8819ff71461042c578063f21b121c14610456578063f3c9fd0e1461048057610129565b80635f29d4b1146102bb578063652832f1146102e55780638456cb591461032157806391cac59e14610337578063b2bdfa7b1461037457610129565b80633faba59e116100f15780633faba59e146101f757806342d150c91461021f57806350344f481461025d5780635c0a126d146102875780635c975abb1461029157610129565b806313af40351461012d578063148b56d6146101555780631902762f1461017d5780633b23e7d7146101b95780633f4ba83a146101e1575b5f5ffd5b348015610138575f5ffd5b50610153600480360381019061014e919061326d565b6104bc565b005b348015610160575f5ffd5b5061017b6004803603810190610176919061326d565b6105fc565b005b348015610188575f5ffd5b506101a3600480360381019061019e91906132cb565b6107b5565b6040516101b09190613311565b60405180910390f35b3480156101c4575f5ffd5b506101df60048036038101906101da9190613a78565b6107d2565b005b3480156101ec575f5ffd5b506101f5610f33565b005b348015610202575f5ffd5b5061021d6004803603810190610218919061326d565b610fcc565b005b34801561022a575f5ffd5b5061024560048036038101906102409190613abf565b61135d565b60405161025493929190613af9565b60405180910390f35b348015610268575f5ffd5b50610271611383565b60405161027e9190613be5565b60405180910390f35b61028f61140e565b005b34801561029c575f5ffd5b506102a5611711565b6040516102b29190613c14565b60405180910390f35b3480156102c6575f5ffd5b506102cf611725565b6040516102dc9190613ce4565b60405180910390f35b3480156102f0575f5ffd5b5061030b6004803603810190610306919061326d565b61177b565b6040516103189190613d04565b60405180910390f35b34801561032c575f5ffd5b50610335611790565b005b348015610342575f5ffd5b5061035d6004803603810190610358919061326d565b611829565b60405161036b929190613d1d565b60405180910390f35b34801561037f575f5ffd5b50610388611855565b6040516103959190613d53565b60405180910390f35b3480156103a9575f5ffd5b506103c460048036038101906103bf9190613d6c565b61187a565b6040516103d19190613d53565b60405180910390f35b3480156103e5575f5ffd5b506103ee6118c2565b005b3480156103fb575f5ffd5b5061041660048036038101906104119190613abf565b611c47565b6040516104239190613db9565b60405180910390f35b348015610437575f5ffd5b50610440611c67565b60405161044d9190613d04565b60405180910390f35b348015610461575f5ffd5b5061046a611c6c565b6040516104779190613d04565b60405180910390f35b34801561048b575f5ffd5b506104a660048036038101906104a19190613abf565b611c76565b6040516104b391906141bf565b60405180910390f35b5f60019054906101000a900473ffffffffffffffffffffffffffffffffffffffff1673ffffffffffffffffffffffffffffffffffffffff163373ffffffffffffffffffffffffffffffffffffffff161461054b576040517f08c379a000000000000000000000000000000000000000000000000000000000815260040161054290614239565b60405180910390fd5b5f73ffffffffffffffffffffffffffffffffffffffff168173ffffffffffffffffffffffffffffffffffffffff16036105b9576040517f08c379a00000000000000000000000000000000000000000000000000000000081526004016105b0906142a1565b60405180910390fd5b805f60016101000a81548173ffffffffffffffffffffffffffffffffffffffff021916908373ffffffffffffffffffffffffffffffffffffffff16021790555050565b5f60019054906101000a900473ffffffffffffffffffffffffffffffffffffffff1673ffffffffffffffffffffffffffffffffffffffff163373ffffffffffffffffffffffffffffffffffffffff161461068b576040517f08c379a000000000000000000000000000000000000000000000000000000000815260040161068290614239565b60405180910390fd5b60085f8273ffffffffffffffffffffffffffffffffffffffff1673ffffffffffffffffffffffffffffffffffffffff1681526020019081526020015f206001015f9054906101000a900460ff16610717576040517f08c379a000000000000000000000000000000000000000000000000000000000815260040161070e90614309565b60405180910390fd5b5f60085f8373ffffffffffffffffffffffffffffffffffffffff1673ffffffffffffffffffffffffffffffffffffffff1681526020019081526020015f206001015f6101000a81548160ff0219169083151502179055505f60085f8373ffffffffffffffffffffffffffffffffffffffff1673ffffffffffffffffffffffffffffffffffffffff1681526020019081526020015f205f018190555050565b6004602052805f5260405f205f915054906101000a900460ff1681565b6107da611f4d565b3360085f8273ffffffffffffffffffffffffffffffffffffffff1673ffffffffffffffffffffffffffffffffffffffff1681526020019081526020015f206001015f9054906101000a900460ff1615610868576040517f08c379a000000000000000000000000000000000000000000000000000000000815260040161085f90614371565b60405180910390fd5b5f5f90505f5f90505b600280549050811015610902573373ffffffffffffffffffffffffffffffffffffffff16600282815481106108a9576108a861438f565b5b905f5260205f20015f9054906101000a900473ffffffffffffffffffffffffffffffffffffffff1673ffffffffffffffffffffffffffffffffffffffff16036108f55760019150610902565b8080600101915050610871565b50600115158115151461094a576040517f08c379a000000000000000000000000000000000000000000000000000000000815260040161094190614452565b60405180910390fd5b5f83511161098d576040517f08c379a0000000000000000000000000000000000000000000000000000000008152600401610984906144ba565b60405180910390fd5b60075f81819054906101000a900460ff16809291906109ab90614505565b91906101000a81548160ff021916908360ff160217905550505f5f90505b8351811015610ef5575f8482815181106109e6576109e561438f565b5b60200260200101516040516020016109fe91906141bf565b6040516020818303038152906040528051906020012090505f5f905060045f8381526020019081526020015f205f81819054906101000a900460ff1680929190610a4790614505565b91906101000a81548160ff021916908360ff160217905550505f5f90505b60055f8481526020019081526020015f2080549050811015610b14573373ffffffffffffffffffffffffffffffffffffffff1660055f8581526020019081526020015f208281548110610abb57610aba61438f565b5b905f5260205f20015f9054906101000a900473ffffffffffffffffffffffffffffffffffffffff1673ffffffffffffffffffffffffffffffffffffffff1603610b075760019150610b14565b8080600101915050610a65565b5080610b8a5760055f8381526020019081526020015f2033908060018154018082558091505060019003905f5260205f20015f9091909190916101000a81548173ffffffffffffffffffffffffffffffffffffffff021916908373ffffffffffffffffffffffffffffffffffffffff1602179055505b600160045f8481526020019081526020015f205f9054906101000a900460ff1660ff1603610bd957600682908060018154018082558091505060019003905f5260205f20015f90919091909150555b610bff60045f8481526020019081526020015f205f9054906101000a900460ff16611f8e565b15610ee657610c27868481518110610c1a57610c1961438f565b5b6020026020010151611fbb565b5f5f90505b6006805490508160ff161015610e9b575f60068260ff1681548110610c5457610c5361438f565b5b905f5260205f2001549050838114610e87575f60055f8381526020019081526020015f20805480602002602001604051908101604052809291908181526020018280548015610cf557602002820191905f5260205f20905b815f9054906101000a900473ffffffffffffffffffffffffffffffffffffffff1673ffffffffffffffffffffffffffffffffffffffff1681526020019060010190808311610cac575b505050505090505f5f90505b81518160ff161015610e485760085f838360ff1681518110610d2657610d2561438f565b5b602002602001015173ffffffffffffffffffffffffffffffffffffffff1673ffffffffffffffffffffffffffffffffffffffff1681526020019081526020015f206001015f9054906101000a900460ff16610e3557610e34828260ff1681518110610d9457610d9361438f565b5b602002602001015160055f8981526020019081526020015f20805480602002602001604051908101604052809291908181526020018280548015610e2a57602002820191905f5260205f20905b815f9054906101000a900473ffffffffffffffffffffffffffffffffffffffff1673ffffffffffffffffffffffffffffffffffffffff1681526020019060010190808311610de1575b50505050506126a1565b5b8080610e4090614505565b915050610d01565b5060045f8381526020019081526020015f205f6101000a81549060ff021916905560055f8381526020019081526020015f205f610e85919061301b565b505b508080610e9390614505565b915050610c2c565b5060045f8381526020019081526020015f205f6101000a81549060ff021916905560055f8381526020019081526020015f205f610ed8919061301b565b60065f610ee59190613039565b5b505080806001019150506109c9565b5060028054905060075f9054906101000a900460ff1660ff1603610f2e575f60075f6101000a81548160ff021916908360ff1602179055505b505050565b5f60019054906101000a900473ffffffffffffffffffffffffffffffffffffffff1673ffffffffffffffffffffffffffffffffffffffff163373ffffffffffffffffffffffffffffffffffffffff1614610fc2576040517f08c379a0000000000000000000000000000000000000000000000000000000008152600401610fb990614239565b60405180910390fd5b610fca612b9e565b565b5f60019054906101000a900473ffffffffffffffffffffffffffffffffffffffff1673ffffffffffffffffffffffffffffffffffffffff163373ffffffffffffffffffffffffffffffffffffffff161461105b576040517f08c379a000000000000000000000000000000000000000000000000000000000815260040161105290614239565b60405180910390fd5b60085f8273ffffffffffffffffffffffffffffffffffffffff1673ffffffffffffffffffffffffffffffffffffffff1681526020019081526020015f206001015f9054906101000a900460ff16156110e8576040517f08c379a00000000000000000000000000000000000000000000000000000000081526004016110df90614577565b60405180910390fd5b600160085f8373ffffffffffffffffffffffffffffffffffffffff1673ffffffffffffffffffffffffffffffffffffffff1681526020019081526020015f206001015f6101000a81548160ff0219169083151502179055508073ffffffffffffffffffffffffffffffffffffffff167ff1a151967feb9c87e5aa6cd9cdee148015dab9c012ef309968cb91c279e094b460405160405180910390a25f60035f8373ffffffffffffffffffffffffffffffffffffffff1673ffffffffffffffffffffffffffffffffffffffff1681526020019081526020015f205490505f60035f8473ffffffffffffffffffffffffffffffffffffffff1673ffffffffffffffffffffffffffffffffffffffff1681526020019081526020015f20819055505f60016002805490506112199190614595565b90505f81111561134f575f818361123091906145f5565b90505f5f90505b60028054905081101561134c578473ffffffffffffffffffffffffffffffffffffffff166002828154811061126f5761126e61438f565b5b905f5260205f20015f9054906101000a900473ffffffffffffffffffffffffffffffffffffffff1673ffffffffffffffffffffffffffffffffffffffff1614611341578160035f600284815481106112ca576112c961438f565b5b905f5260205f20015f9054906101000a900473ffffffffffffffffffffffffffffffffffffffff1673ffffffffffffffffffffffffffffffffffffffff1673ffffffffffffffffffffffffffffffffffffffff1681526020019081526020015f205f8282546113399190614625565b925050819055505b806001019050611237565b50505b61135883612bfe565b505050565b6001602052805f5260405f205f91509050805f0154908060040154908060050154905083565b6060600280548060200260200160405190810160405280929190818152602001828054801561140457602002820191905f5260205f20905b815f9054906101000a900473ffffffffffffffffffffffffffffffffffffffff1673ffffffffffffffffffffffffffffffffffffffff16815260200190600101908083116113bb575b5050505050905090565b611416611f4d565b3360085f8273ffffffffffffffffffffffffffffffffffffffff1673ffffffffffffffffffffffffffffffffffffffff1681526020019081526020015f206001015f9054906101000a900460ff16156114a4576040517f08c379a000000000000000000000000000000000000000000000000000000000815260040161149b90614371565b60405180910390fd5b5f5f90505f5f90505b60028054905081101561153e573373ffffffffffffffffffffffffffffffffffffffff16600282815481106114e5576114e461438f565b5b905f5260205f20015f9054906101000a900473ffffffffffffffffffffffffffffffffffffffff1673ffffffffffffffffffffffffffffffffffffffff1603611531576001915061153e565b80806001019150506114ad565b505f151581151514611585576040517f08c379a000000000000000000000000000000000000000000000000000000000815260040161157c906146a2565b60405180910390fd5b5f73ffffffffffffffffffffffffffffffffffffffff163373ffffffffffffffffffffffffffffffffffffffff16141580156115ed57503073ffffffffffffffffffffffffffffffffffffffff163373ffffffffffffffffffffffffffffffffffffffff1614155b61162c576040517f08c379a00000000000000000000000000000000000000000000000000000000081526004016116239061470a565b60405180910390fd5b66038d7ea4c680003414611675576040517f08c379a000000000000000000000000000000000000000000000000000000000815260040161166c90614798565b60405180910390fd5b3460035f3373ffffffffffffffffffffffffffffffffffffffff1673ffffffffffffffffffffffffffffffffffffffff1681526020019081526020015f20819055503373ffffffffffffffffffffffffffffffffffffffff167fc60400ca3fd7ce7a123251117104ceac79276329b4f7e0413700342999d3cc1d346040516116fd9190613d04565b60405180910390a261170d612d7e565b5050565b5f5f5f9054906101000a900460ff16905090565b6060600680548060200260200160405190810160405280929190818152602001828054801561177157602002820191905f5260205f20905b81548152602001906001019080831161175d575b5050505050905090565b6003602052805f5260405f205f915090505481565b5f60019054906101000a900473ffffffffffffffffffffffffffffffffffffffff1673ffffffffffffffffffffffffffffffffffffffff163373ffffffffffffffffffffffffffffffffffffffff161461181f576040517f08c379a000000000000000000000000000000000000000000000000000000000815260040161181690614239565b60405180910390fd5b611827612f73565b565b6008602052805f5260405f205f91509050805f015490806001015f9054906101000a900460ff16905082565b5f60019054906101000a900473ffffffffffffffffffffffffffffffffffffffff1681565b6005602052815f5260405f208181548110611893575f80fd5b905f5260205f20015f915091509054906101000a900473ffffffffffffffffffffffffffffffffffffffff1681565b6118ca611f4d565b3360085f8273ffffffffffffffffffffffffffffffffffffffff1673ffffffffffffffffffffffffffffffffffffffff1681526020019081526020015f206001015f9054906101000a900460ff1615611958576040517f08c379a000000000000000000000000000000000000000000000000000000000815260040161194f90614371565b60405180910390fd5b5f60035f3373ffffffffffffffffffffffffffffffffffffffff1673ffffffffffffffffffffffffffffffffffffffff1681526020019081526020015f205490505f81116119db576040517f08c379a00000000000000000000000000000000000000000000000000000000081526004016119d290614800565b60405180910390fd5b5f5f90505b600280549050811015611b57573373ffffffffffffffffffffffffffffffffffffffff1660028281548110611a1857611a1761438f565b5b905f5260205f20015f9054906101000a900473ffffffffffffffffffffffffffffffffffffffff1673ffffffffffffffffffffffffffffffffffffffff1603611b4a5760026001600280549050611a6f9190614595565b81548110611a8057611a7f61438f565b5b905f5260205f20015f9054906101000a900473ffffffffffffffffffffffffffffffffffffffff1660028281548110611abc57611abb61438f565b5b905f5260205f20015f6101000a81548173ffffffffffffffffffffffffffffffffffffffff021916908373ffffffffffffffffffffffffffffffffffffffff1602179055506002805480611b1357611b1261481e565b5b600190038181905f5260205f20015f6101000a81549073ffffffffffffffffffffffffffffffffffffffff02191690559055611b57565b80806001019150506119e0565b505f60035f3373ffffffffffffffffffffffffffffffffffffffff1673ffffffffffffffffffffffffffffffffffffffff1681526020019081526020015f20819055505f3373ffffffffffffffffffffffffffffffffffffffff1682604051611bbf90614878565b5f6040518083038185875af1925050503d805f8114611bf9576040519150601f19603f3d011682016040523d82523d5f602084013e611bfe565b606091505b5050905080611c42576040517f08c379a0000000000000000000000000000000000000000000000000000000008152600401611c39906148d6565b60405180910390fd5b505050565b60068181548110611c56575f80fd5b905f5260205f20015f915090505481565b600381565b655af3107a400081565b611c7e613057565b60015f8381526020019081526020015f206040518060c00160405290815f820154815260200160018201805480602002602001604051908101604052809291908181526020015f905b82821015611e20578382905f5260205f2090600302016040518060600160405290815f82018054611cf790614921565b80601f0160208091040260200160405190810160405280929190818152602001828054611d2390614921565b8015611d6e5780601f10611d4557610100808354040283529160200191611d6e565b820191905f5260205f20905b815481529060010190602001808311611d5157829003601f168201915b5050505050815260200160018201548152602001600282018054611d9190614921565b80601f0160208091040260200160405190810160405280929190818152602001828054611dbd90614921565b8015611e085780601f10611ddf57610100808354040283529160200191611e08565b820191905f5260205f20905b815481529060010190602001808311611deb57829003601f168201915b50505050508152505081526020019060010190611cc7565b50505050815260200160028201805480602002602001604051908101604052809291908181526020015f905b82821015611ea9578382905f5260205f2090600302016040518060600160405290815f8201548152602001600182015f9054906101000a900460ff1615151515815260200160028201548152505081526020019060010190611e4c565b50505050815260200160038201805480602002602001604051908101604052809291908181526020015f905b82821015611f2a578382905f5260205f2090600202016040518060400160405290815f82015f9054906101000a900460ff1660ff1660ff16815260200160018201548152505081526020019060010190611ed5565b505050508152602001600482015481526020016005820154815250509050919050565b611f55611711565b15611f8c576040517fd93c066500000000000000000000000000000000000000000000000000000000815260040160405180910390fd5b565b5f8160ff1660028080549050611fa491906145f5565b108015611fb4575060028260ff16115b9050919050565b5f815f015190505f60015f8381526020019081526020015f205f0154036122965760015f8281526020019081526020015f205f5f82015f9055600182015f612003919061308a565b600282015f61201291906130ab565b600382015f61202191906130cc565b600482015f9055600582015f905550508060015f8381526020019081526020015f205f0181905550816080015160015f8381526020019081526020015f20600401819055508160a0015160015f8381526020019081526020015f20600501819055505f5f90505b826020015151811015612136575f836020015182815181106120ad576120ac61438f565b5b6020026020010151905060015f8481526020019081526020015f2060010181908060018154018082558091505060019003905f5260205f2090600302015f909190919091505f820151815f0190816121059190614af1565b506020820151816001015560408201518160020190816121259190614af1565b505050508080600101915050612088565b505f5f90505b8260400151518110156121e7575f836040015182815181106121615761216061438f565b5b6020026020010151905060015f8481526020019081526020015f2060020181908060018154018082558091505060019003905f5260205f2090600302015f909190919091505f820151815f01556020820151816001015f6101000a81548160ff02191690831515021790555060408201518160020155505050808060010191505061213c565b505f5f90505b82606001515181101561228f575f836060015182815181106122125761221161438f565b5b6020026020010151905060015f8481526020019081526020015f2060030181908060018154018082558091505060019003905f5260205f2090600202015f909190919091505f820151815f015f6101000a81548160ff021916908360ff1602179055506020820151816001015550505080806001019150506121ed565b505061269e565b60015f8281526020019081526020015f20600401548260800151146122d357816080015160015f8381526020019081526020015f20600401819055505b5f60015f8381526020019081526020015f206002016040516020016122f89190614d1f565b6040516020818303038152906040528051906020012090505f83604001516040516020016123269190614d9b565b6040516020818303038152906040528051906020012090508082146124165760015f8481526020019081526020015f206002015f61236491906130ab565b5f5f90505b846040015151811015612414575f8560400151828151811061238e5761238d61438f565b5b6020026020010151905060015f8681526020019081526020015f2060020181908060018154018082558091505060019003905f5260205f2090600302015f909190919091505f820151815f01556020820151816001015f6101000a81548160ff021916908315150217905550604082015181600201555050508080600101915050612369565b505b5f60015f8581526020019081526020015f2060030160405160200161243b9190614ecf565b6040516020818303038152906040528051906020012090505f85606001516040516020016124699190614f4b565b6040516020818303038152906040528051906020012090508082146125505760015f8681526020019081526020015f206003015f6124a791906130cc565b5f5f90505b86606001515181101561254e575f876060015182815181106124d1576124d061438f565b5b6020026020010151905060015f8881526020019081526020015f2060030181908060018154018082558091505060019003905f5260205f2090600202015f909190919091505f820151815f015f6101000a81548160ff021916908360ff1602179055506020820151816001015550505080806001019150506124ac565b505b5f60015f8781526020019081526020015f206001016040516020016125759190615108565b6040516020818303038152906040528051906020012090505f87602001516040516020016125a3919061519b565b6040516020818303038152906040528051906020012090508082146126965760015f8881526020019081526020015f206001015f6125e1919061308a565b5f5f90505b886020015151811015612694575f8960200151828151811061260b5761260a61438f565b5b6020026020010151905060015f8a81526020019081526020015f2060010181908060018154018082558091505060019003905f5260205f2090600302015f909190919091505f820151815f0190816126639190614af1565b506020820151816001015560408201518160020190816126839190614af1565b5050505080806001019150506125e6565b505b505050505050505b50565b5f60035f8473ffffffffffffffffffffffffffffffffffffffff1673ffffffffffffffffffffffffffffffffffffffff1681526020019081526020015f205411612720576040517f08c379a000000000000000000000000000000000000000000000000000000000815260040161271790615205565b60405180910390fd5b60085f8373ffffffffffffffffffffffffffffffffffffffff1673ffffffffffffffffffffffffffffffffffffffff1681526020019081526020015f205f015f81548092919061276f90615223565b91905055505f81519050600360085f8573ffffffffffffffffffffffffffffffffffffffff1673ffffffffffffffffffffffffffffffffffffffff1681526020019081526020015f205f01541061298c57600160085f8573ffffffffffffffffffffffffffffffffffffffff1673ffffffffffffffffffffffffffffffffffffffff1681526020019081526020015f206001015f6101000a81548160ff0219169083151502179055508273ffffffffffffffffffffffffffffffffffffffff167ff1a151967feb9c87e5aa6cd9cdee148015dab9c012ef309968cb91c279e094b460405160405180910390a25f60035f8573ffffffffffffffffffffffffffffffffffffffff1673ffffffffffffffffffffffffffffffffffffffff1681526020019081526020015f205490505f60035f8673ffffffffffffffffffffffffffffffffffffffff1673ffffffffffffffffffffffffffffffffffffffff1681526020019081526020015f20819055506128e784612bfe565b5f821115612986575f82826128fc91906145f5565b90505f5f90505b83811015612983578160035f8784815181106129225761292161438f565b5b602002602001015173ffffffffffffffffffffffffffffffffffffffff1673ffffffffffffffffffffffffffffffffffffffff1681526020019081526020015f205f8282546129719190614625565b92505081905550806001019050612903565b50505b50612b99565b5f655af3107a400090508060035f8673ffffffffffffffffffffffffffffffffffffffff1673ffffffffffffffffffffffffffffffffffffffff1681526020019081526020015f20541015612a16576040517f08c379a0000000000000000000000000000000000000000000000000000000008152600401612a0d906152b4565b60405180910390fd5b8060035f8673ffffffffffffffffffffffffffffffffffffffff1673ffffffffffffffffffffffffffffffffffffffff1681526020019081526020015f205f828254612a629190614595565b925050819055508373ffffffffffffffffffffffffffffffffffffffff167fbb5e0de9b41d911fe88799197a82d842eff4fdea524cdfc0becff3857f0ee3ac8260085f8873ffffffffffffffffffffffffffffffffffffffff1673ffffffffffffffffffffffffffffffffffffffff1681526020019081526020015f205f0154604051612af09291906152d2565b60405180910390a25f821115612b97575f8282612b0d91906145f5565b90505f5f90505b83811015612b94578160035f878481518110612b3357612b3261438f565b5b602002602001015173ffffffffffffffffffffffffffffffffffffffff1673ffffffffffffffffffffffffffffffffffffffff1681526020019081526020015f205f828254612b829190614625565b92505081905550806001019050612b14565b50505b505b505050565b612ba6612fd4565b5f5f5f6101000a81548160ff0219169083151502179055507f5db9ee0a495bf2e6ff9c91a7834c1ba4fdd244a5e8aa4e537bd38aeae4b073aa612be7613014565b604051612bf49190613d53565b60405180910390a1565b5f5f90505b600280549050811015612d7a578173ffffffffffffffffffffffffffffffffffffffff1660028281548110612c3b57612c3a61438f565b5b905f5260205f20015f9054906101000a900473ffffffffffffffffffffffffffffffffffffffff1673ffffffffffffffffffffffffffffffffffffffff1603612d6d5760026001600280549050612c929190614595565b81548110612ca357612ca261438f565b5b905f5260205f20015f9054906101000a900473ffffffffffffffffffffffffffffffffffffffff1660028281548110612cdf57612cde61438f565b5b905f5260205f20015f6101000a81548173ffffffffffffffffffffffffffffffffffffffff021916908373ffffffffffffffffffffffffffffffffffffffff1602179055506002805480612d3657612d3561481e565b5b600190038181905f5260205f20015f6101000a81549073ffffffffffffffffffffffffffffffffffffffff02191690559055612d7a565b8080600101915050612c03565b5050565b5f5f90505f5f90505b600280549050811015612e18573373ffffffffffffffffffffffffffffffffffffffff1660028281548110612dbf57612dbe61438f565b5b905f5260205f20015f9054906101000a900473ffffffffffffffffffffffffffffffffffffffff1673ffffffffffffffffffffffffffffffffffffffff1603612e0b5760019150612e18565b8080600101915050612d87565b505f151581151514612e5f576040517f08c379a0000000000000000000000000000000000000000000000000000000008152600401612e56906146a2565b60405180910390fd5b5f73ffffffffffffffffffffffffffffffffffffffff163373ffffffffffffffffffffffffffffffffffffffff1603612ecd576040517f08c379a0000000000000000000000000000000000000000000000000000000008152600401612ec490615343565b60405180910390fd5b600233908060018154018082558091505060019003905f5260205f20015f9091909190916101000a81548173ffffffffffffffffffffffffffffffffffffffff021916908373ffffffffffffffffffffffffffffffffffffffff1602179055503373ffffffffffffffffffffffffffffffffffffffff167fc473661237ac48848af775cb3c9f5bfdf90ed59dbe739ebac0186bc6e61d198460405160405180910390a250565b612f7b611f4d565b60015f5f6101000a81548160ff0219169083151502179055507f62e78cea01bee320cd4e420270b5ea74000d11b0c9f74754ebdbfc544b05a258612fbd613014565b604051612fca9190613d53565b60405180910390a1565b612fdc611711565b613012576040517f8dfc202b00000000000000000000000000000000000000000000000000000000815260040160405180910390fd5b565b5f33905090565b5080545f8255905f5260205f209081019061303691906130ed565b50565b5080545f8255905f5260205f20908101906130549190613108565b50565b6040518060c001604052805f81526020016060815260200160608152602001606081526020015f81526020015f81525090565b5080545f8255600302905f5260205f20908101906130a89190613123565b50565b5080545f8255600302905f5260205f20908101906130c9919061315e565b50565b5080545f8255600202905f5260205f20908101906130ea9190613195565b50565b5b80821115613104575f815f9055506001016130ee565b5090565b5b8082111561311f575f815f905550600101613109565b5090565b5b8082111561315a575f5f82015f61313b91906131c5565b600182015f9055600282015f61315191906131c5565b50600301613124565b5090565b5b80821115613191575f5f82015f9055600182015f6101000a81549060ff0219169055600282015f90555060030161315f565b5090565b5b808211156131c1575f5f82015f6101000a81549060ff0219169055600182015f905550600201613196565b5090565b5080546131d190614921565b5f825580601f106131e257506131ff565b601f0160209004905f5260205f20908101906131fe91906130ed565b5b50565b5f604051905090565b5f5ffd5b5f5ffd5b5f73ffffffffffffffffffffffffffffffffffffffff82169050919050565b5f61323c82613213565b9050919050565b61324c81613232565b8114613256575f5ffd5b50565b5f8135905061326781613243565b92915050565b5f602082840312156132825761328161320b565b5b5f61328f84828501613259565b91505092915050565b5f819050919050565b6132aa81613298565b81146132b4575f5ffd5b50565b5f813590506132c5816132a1565b92915050565b5f602082840312156132e0576132df61320b565b5b5f6132ed848285016132b7565b91505092915050565b5f60ff82169050919050565b61330b816132f6565b82525050565b5f6020820190506133245f830184613302565b92915050565b5f5ffd5b5f601f19601f8301169050919050565b7f4e487b71000000000000000000000000000000000000000000000000000000005f52604160045260245ffd5b6133748261332e565b810181811067ffffffffffffffff821117156133935761339261333e565b5b80604052505050565b5f6133a5613202565b90506133b1828261336b565b919050565b5f67ffffffffffffffff8211156133d0576133cf61333e565b5b602082029050602081019050919050565b5f5ffd5b5f5ffd5b5f5ffd5b5f819050919050565b6133ff816133ed565b8114613409575f5ffd5b50565b5f8135905061341a816133f6565b92915050565b5f67ffffffffffffffff82111561343a5761343961333e565b5b602082029050602081019050919050565b5f5ffd5b5f67ffffffffffffffff8211156134695761346861333e565b5b6134728261332e565b9050602081019050919050565b828183375f83830152505050565b5f61349f61349a8461344f565b61339c565b9050828152602081018484840111156134bb576134ba61344b565b5b6134c684828561347f565b509392505050565b5f82601f8301126134e2576134e161332a565b5b81356134f284826020860161348d565b91505092915050565b5f606082840312156135105761350f6133e5565b5b61351a606061339c565b90505f82013567ffffffffffffffff811115613539576135386133e9565b5b613545848285016134ce565b5f8301525060206135588482850161340c565b602083015250604082013567ffffffffffffffff81111561357c5761357b6133e9565b5b613588848285016134ce565b60408301525092915050565b5f6135a66135a184613420565b61339c565b905080838252602082019050602084028301858111156135c9576135c86133e1565b5b835b8181101561361057803567ffffffffffffffff8111156135ee576135ed61332a565b5b8086016135fb89826134fb565b855260208501945050506020810190506135cb565b5050509392505050565b5f82601f83011261362e5761362d61332a565b5b813561363e848260208601613594565b91505092915050565b5f67ffffffffffffffff8211156136615761366061333e565b5b602082029050602081019050919050565b5f8115159050919050565b61368681613672565b8114613690575f5ffd5b50565b5f813590506136a18161367d565b92915050565b5f606082840312156136bc576136bb6133e5565b5b6136c6606061339c565b90505f6136d58482850161340c565b5f8301525060206136e884828501613693565b60208301525060406136fc8482850161340c565b60408301525092915050565b5f61371a61371584613647565b61339c565b9050808382526020820190506060840283018581111561373d5761373c6133e1565b5b835b81811015613766578061375288826136a7565b84526020840193505060608101905061373f565b5050509392505050565b5f82601f8301126137845761378361332a565b5b8135613794848260208601613708565b91505092915050565b5f67ffffffffffffffff8211156137b7576137b661333e565b5b602082029050602081019050919050565b6137d1816132f6565b81146137db575f5ffd5b50565b5f813590506137ec816137c8565b92915050565b5f60408284031215613807576138066133e5565b5b613811604061339c565b90505f613820848285016137de565b5f8301525060206138338482850161340c565b60208301525092915050565b5f61385161384c8461379d565b61339c565b90508083825260208201905060408402830185811115613874576138736133e1565b5b835b8181101561389d578061388988826137f2565b845260208401935050604081019050613876565b5050509392505050565b5f82601f8301126138bb576138ba61332a565b5b81356138cb84826020860161383f565b91505092915050565b5f60c082840312156138e9576138e86133e5565b5b6138f360c061339c565b90505f6139028482850161340c565b5f83015250602082013567ffffffffffffffff811115613925576139246133e9565b5b6139318482850161361a565b602083015250604082013567ffffffffffffffff811115613955576139546133e9565b5b61396184828501613770565b604083015250606082013567ffffffffffffffff811115613985576139846133e9565b5b613991848285016138a7565b60608301525060806139a58482850161340c565b60808301525060a06139b98482850161340c565b60a08301525092915050565b5f6139d76139d2846133b6565b61339c565b905080838252602082019050602084028301858111156139fa576139f96133e1565b5b835b81811015613a4157803567ffffffffffffffff811115613a1f57613a1e61332a565b5b808601613a2c89826138d4565b855260208501945050506020810190506139fc565b5050509392505050565b5f82601f830112613a5f57613a5e61332a565b5b8135613a6f8482602086016139c5565b91505092915050565b5f60208284031215613a8d57613a8c61320b565b5b5f82013567ffffffffffffffff811115613aaa57613aa961320f565b5b613ab684828501613a4b565b91505092915050565b5f60208284031215613ad457613ad361320b565b5b5f613ae18482850161340c565b91505092915050565b613af3816133ed565b82525050565b5f606082019050613b0c5f830186613aea565b613b196020830185613aea565b613b266040830184613aea565b949350505050565b5f81519050919050565b5f82825260208201905092915050565b5f819050602082019050919050565b613b6081613232565b82525050565b5f613b718383613b57565b60208301905092915050565b5f602082019050919050565b5f613b9382613b2e565b613b9d8185613b38565b9350613ba883613b48565b805f5b83811015613bd8578151613bbf8882613b66565b9750613bca83613b7d565b925050600181019050613bab565b5085935050505092915050565b5f6020820190508181035f830152613bfd8184613b89565b905092915050565b613c0e81613672565b82525050565b5f602082019050613c275f830184613c05565b92915050565b5f81519050919050565b5f82825260208201905092915050565b5f819050602082019050919050565b613c5f81613298565b82525050565b5f613c708383613c56565b60208301905092915050565b5f602082019050919050565b5f613c9282613c2d565b613c9c8185613c37565b9350613ca783613c47565b805f5b83811015613cd7578151613cbe8882613c65565b9750613cc983613c7c565b925050600181019050613caa565b5085935050505092915050565b5f6020820190508181035f830152613cfc8184613c88565b905092915050565b5f602082019050613d175f830184613aea565b92915050565b5f604082019050613d305f830185613aea565b613d3d6020830184613c05565b9392505050565b613d4d81613232565b82525050565b5f602082019050613d665f830184613d44565b92915050565b5f5f60408385031215613d8257613d8161320b565b5b5f613d8f858286016132b7565b9250506020613da08582860161340c565b9150509250929050565b613db381613298565b82525050565b5f602082019050613dcc5f830184613daa565b92915050565b613ddb816133ed565b82525050565b5f81519050919050565b5f82825260208201905092915050565b5f819050602082019050919050565b5f81519050919050565b5f82825260208201905092915050565b8281835e5f83830152505050565b5f613e3c82613e0a565b613e468185613e14565b9350613e56818560208601613e24565b613e5f8161332e565b840191505092915050565b5f606083015f8301518482035f860152613e848282613e32565b9150506020830151613e996020860182613dd2565b5060408301518482036040860152613eb18282613e32565b9150508091505092915050565b5f613ec98383613e6a565b905092915050565b5f602082019050919050565b5f613ee782613de1565b613ef18185613deb565b935083602082028501613f0385613dfb565b805f5b85811015613f3e5784840389528151613f1f8582613ebe565b9450613f2a83613ed1565b925060208a01995050600181019050613f06565b50829750879550505050505092915050565b5f81519050919050565b5f82825260208201905092915050565b5f819050602082019050919050565b613f8281613672565b82525050565b606082015f820151613f9c5f850182613dd2565b506020820151613faf6020850182613f79565b506040820151613fc26040850182613dd2565b50505050565b5f613fd38383613f88565b60608301905092915050565b5f602082019050919050565b5f613ff582613f50565b613fff8185613f5a565b935061400a83613f6a565b805f5b8381101561403a5781516140218882613fc8565b975061402c83613fdf565b92505060018101905061400d565b5085935050505092915050565b5f81519050919050565b5f82825260208201905092915050565b5f819050602082019050919050565b614079816132f6565b82525050565b604082015f8201516140935f850182614070565b5060208201516140a66020850182613dd2565b50505050565b5f6140b7838361407f565b60408301905092915050565b5f602082019050919050565b5f6140d982614047565b6140e38185614051565b93506140ee83614061565b805f5b8381101561411e57815161410588826140ac565b9750614110836140c3565b9250506001810190506140f1565b5085935050505092915050565b5f60c083015f8301516141405f860182613dd2565b50602083015184820360208601526141588282613edd565b915050604083015184820360408601526141728282613feb565b9150506060830151848203606086015261418c82826140cf565b91505060808301516141a16080860182613dd2565b5060a08301516141b460a0860182613dd2565b508091505092915050565b5f6020820190508181035f8301526141d7818461412b565b905092915050565b5f82825260208201905092915050565b7f4e6f742074686520636f6e7472616374206f776e6572000000000000000000005f82015250565b5f6142236016836141df565b915061422e826141ef565b602082019050919050565b5f6020820190508181035f83015261425081614217565b9050919050565b7f4e6577206f776e65722063616e6e6f74206265207a65726f20616464726573735f82015250565b5f61428b6020836141df565b915061429682614257565b602082019050919050565b5f6020820190508181035f8301526142b88161427f565b9050919050565b7f4e6f6465206973206e6f742062616e6e656400000000000000000000000000005f82015250565b5f6142f36012836141df565b91506142fe826142bf565b602082019050919050565b5f6020820190508181035f830152614320816142e7565b9050919050565b7f4e6f64652069732062616e6e65640000000000000000000000000000000000005f82015250565b5f61435b600e836141df565b915061436682614327565b602082019050919050565b5f6020820190508181035f8301526143888161434f565b9050919050565b7f4e487b71000000000000000000000000000000000000000000000000000000005f52603260045260245ffd5b7f4e6f6465206973206e6f74206c69737465642c20706c656173652063616c6c205f8201527f6164644e65774e6f64652066756e6374696f6e20746f2072656769737465722060208201527f61206e6577206e6f646500000000000000000000000000000000000000000000604082015250565b5f61443c604a836141df565b9150614447826143bc565b606082019050919050565b5f6020820190508181035f83015261446981614430565b9050919050565b7f4e6f206d6174636820646174612070726f7669646564000000000000000000005f82015250565b5f6144a46016836141df565b91506144af82614470565b602082019050919050565b5f6020820190508181035f8301526144d181614498565b9050919050565b7f4e487b71000000000000000000000000000000000000000000000000000000005f52601160045260245ffd5b5f61450f826132f6565b915060ff8203614522576145216144d8565b5b600182019050919050565b7f4e6f646520697320616c72656164792062616e6e6564000000000000000000005f82015250565b5f6145616016836141df565b915061456c8261452d565b602082019050919050565b5f6020820190508181035f83015261458e81614555565b9050919050565b5f61459f826133ed565b91506145aa836133ed565b92508282039050818111156145c2576145c16144d8565b5b92915050565b7f4e487b71000000000000000000000000000000000000000000000000000000005f52601260045260245ffd5b5f6145ff826133ed565b915061460a836133ed565b92508261461a576146196145c8565b5b828204905092915050565b5f61462f826133ed565b915061463a836133ed565b9250828201905080821115614652576146516144d8565b5b92915050565b7f416c7265616479207374616b65640000000000000000000000000000000000005f82015250565b5f61468c600e836141df565b915061469782614658565b602082019050919050565b5f6020820190508181035f8301526146b981614680565b9050919050565b7f496e76616c6964207374616b696e6720706172616d65746572730000000000005f82015250565b5f6146f4601a836141df565b91506146ff826146c0565b602082019050919050565b5f6020820190508181035f830152614721816146e8565b9050919050565b7f616d6f756e74206d7573742062652065786163746c7920302e303031206574685f8201527f6572000000000000000000000000000000000000000000000000000000000000602082015250565b5f6147826022836141df565b915061478d82614728565b604082019050919050565b5f6020820190508181035f8301526147af81614776565b9050919050565b7f4e6f2066756e647320746f2077697468647261770000000000000000000000005f82015250565b5f6147ea6014836141df565b91506147f5826147b6565b602082019050919050565b5f6020820190508181035f830152614817816147de565b9050919050565b7f4e487b71000000000000000000000000000000000000000000000000000000005f52603160045260245ffd5b5f81905092915050565b50565b5f6148635f8361484b565b915061486e82614855565b5f82019050919050565b5f61488282614858565b9150819050919050565b7f5472616e73666572206661696c656400000000000000000000000000000000005f82015250565b5f6148c0600f836141df565b91506148cb8261488c565b602082019050919050565b5f6020820190508181035f8301526148ed816148b4565b9050919050565b7f4e487b71000000000000000000000000000000000000000000000000000000005f52602260045260245ffd5b5f600282049050600182168061493857607f821691505b60208210810361494b5761494a6148f4565b5b50919050565b5f819050815f5260205f209050919050565b5f6020601f8301049050919050565b5f82821b905092915050565b5f600883026149ad7fffffffffffffffffffffffffffffffffffffffffffffffffffffffffffffffff82614972565b6149b78683614972565b95508019841693508086168417925050509392505050565b5f819050919050565b5f6149f26149ed6149e8846133ed565b6149cf565b6133ed565b9050919050565b5f819050919050565b614a0b836149d8565b614a1f614a17826149f9565b84845461497e565b825550505050565b5f5f905090565b614a36614a27565b614a41818484614a02565b505050565b5b81811015614a6457614a595f82614a2e565b600181019050614a47565b5050565b601f821115614aa957614a7a81614951565b614a8384614963565b81016020851015614a92578190505b614aa6614a9e85614963565b830182614a46565b50505b505050565b5f82821c905092915050565b5f614ac95f1984600802614aae565b1980831691505092915050565b5f614ae18383614aba565b9150826002028217905092915050565b614afa82613e0a565b67ffffffffffffffff811115614b1357614b1261333e565b5b614b1d8254614921565b614b28828285614a68565b5f60209050601f831160018114614b59575f8415614b47578287015190505b614b518582614ad6565b865550614bb8565b601f198416614b6786614951565b5f5b82811015614b8e57848901518255600182019150602085019450602081019050614b69565b86831015614bab5784890151614ba7601f891682614aba565b8355505b6001600288020188555050505b505050505050565b5f81549050919050565b5f82825260208201905092915050565b5f819050815f5260205f209050919050565b5f815f1c9050919050565b5f819050919050565b5f614c12614c0d83614bec565b614bf7565b9050919050565b5f60ff82169050919050565b5f614c37614c3283614bec565b614c19565b9050919050565b606082015f5f8301549050614c5281614c00565b614c5e5f860182613dd2565b5060018301549050614c6f81614c25565b614c7c6020860182613f79565b5060028301549050614c8d81614c00565b614c9a6040860182613dd2565b5050505050565b5f614cac8383614c3e565b60608301905092915050565b5f600382019050919050565b5f614cce82614bc0565b614cd88185614bca565b9350614ce383614bda565b805f5b83811015614d125781614cf98882614ca1565b9750614d0483614cb8565b925050600181019050614ce6565b5085935050505092915050565b5f6020820190508181035f830152614d378184614cc4565b905092915050565b5f614d4982613f50565b614d538185614bca565b9350614d5e83613f6a565b805f5b83811015614d8e578151614d758882613fc8565b9750614d8083613fdf565b925050600181019050614d61565b5085935050505092915050565b5f6020820190508181035f830152614db38184614d3f565b905092915050565b5f81549050919050565b5f82825260208201905092915050565b5f819050815f5260205f209050919050565b5f60ff82169050919050565b5f614e05614e0083614bec565b614de7565b9050919050565b604082015f5f8301549050614e2081614df3565b614e2c5f860182614070565b5060018301549050614e3d81614c00565b614e4a6020860182613dd2565b5050505050565b5f614e5c8383614e0c565b60408301905092915050565b5f600282019050919050565b5f614e7e82614dbb565b614e888185614dc5565b9350614e9383614dd5565b805f5b83811015614ec25781614ea98882614e51565b9750614eb483614e68565b925050600181019050614e96565b5085935050505092915050565b5f6020820190508181035f830152614ee78184614e74565b905092915050565b5f614ef982614047565b614f038185614dc5565b9350614f0e83614061565b805f5b83811015614f3e578151614f2588826140ac565b9750614f30836140c3565b925050600181019050614f11565b5085935050505092915050565b5f6020820190508181035f830152614f638184614eef565b905092915050565b5f81549050919050565b5f82825260208201905092915050565b5f819050815f5260205f209050919050565b5f8154614fa381614921565b614fad8186613e14565b9450600182165f8114614fc75760018114614fdd5761500f565b60ff19831686528115156020028601935061500f565b614fe685614951565b5f5b8381101561500757815481890152600182019150602081019050614fe8565b808801955050505b50505092915050565b5f606083015f5f84018583035f8701526150328382614f97565b9250506001840154905061504581614c00565b6150526020870182613dd2565b506002840185830360408701526150698382614f97565b925050819250505092915050565b5f6150828383615018565b905092915050565b5f600382019050919050565b5f6150a082614f6b565b6150aa8185614f75565b9350836020820285016150bc85614f85565b805f5b858110156150f6578484038952816150d78582615077565b94506150e28361508a565b925060208a019950506001810190506150bf565b50829750879550505050505092915050565b5f6020820190508181035f8301526151208184615096565b905092915050565b5f61513282613de1565b61513c8185614f75565b93508360208202850161514e85613dfb565b805f5b85811015615189578484038952815161516a8582613ebe565b945061517583613ed1565b925060208a01995050600181019050615151565b50829750879550505050505092915050565b5f6020820190508181035f8301526151b38184615128565b905092915050565b7f4e6f646520686173206e6f207374616b65642066756e647300000000000000005f82015250565b5f6151ef6018836141df565b91506151fa826151bb565b602082019050919050565b5f6020820190508181035f83015261521c816151e3565b9050919050565b5f61522d826133ed565b91507fffffffffffffffffffffffffffffffffffffffffffffffffffffffffffffffff820361525f5761525e6144d8565b5b600182019050919050565b7f496e73756666696369656e74207374616b65642066756e6473000000000000005f82015250565b5f61529e6019836141df565b91506152a98261526a565b602082019050919050565b5f6020820190508181035f8301526152cb81615292565b9050919050565b5f6040820190506152e55f830185613aea565b6152f26020830184613aea565b9392505050565b7f4e6577206e6f64652063616e6e6f74206265207a65726f2061646472657373005f82015250565b5f61532d601f836141df565b9150615338826152f9565b602082019050919050565b5f6020820190508181035f83015261535a81615321565b905091905056fea26469706673582212207d92db8a74ae760a1427d061608fe29b2ca8236b062d3d42a0b644c84afb644964736f6c634300081c0033","linkReferences":{}},"methodIdentifiers":{"MAX_VIOLATIONS()":"e8819ff7","PUNISHMENT_AMOUNT()":"f21b121c","_addressByHash(bytes32,uint256)":"bb27ea26","_fundsStaked(address)":"652832f1","_matchMapping(uint256)":"42d150c9","_matchVotes(bytes32)":"1902762f","_nodeViolations(address)":"91cac59e","_owner()":"b2bdfa7b","_pendingMatchesHashes(uint256)":"da83225a","addFundToStaking()":"5c0a126d","banNode(address)":"3faba59e","getListedNodes()":"50344f48","getMatchById(uint256)":"f3c9fd0e","getPendingMatches()":"5f29d4b1","handleNewMatches((uint256,(string,uint256,string)[],(uint256,bool,uint256)[],(uint8,uint256)[],uint256,uint256)[])":"3b23e7d7","pause()":"8456cb59","paused()":"5c975abb","rehabilitateNode(address)":"148b56d6","setOwner(address)":"13af4035","unpause()":"3f4ba83a","withdrawStake()":"bed9d861"},"id":2}